{"contracts/root_verify.sol":{"rootVerify":{"abi":[{"inputs":[{"internalType":"uint256","name":"_currentLocation","type":"uint256"}],"name":"currentLocation","outputs":[{"internalType":"uint256","name":"","type":"uint256"}],"stateMutability":"nonpayable","type":"function"},{"inputs":[{"internalType":"address","name":"_addr","type":"address"}],"name":"getDipper","outputs":[{"internalType":"string","name":"","type":"string"}],"stateMutability":"view","type":"function"},{"inputs":[{"internalType":"string","name":"_r_name","type":"string"}],"name":"getRootHashs","outputs":[{"internalType":"uint256[]","name":"","type":"uint256[]"}],"stateMutability":"view","type":"function"},{"inputs":[{"internalType":"string","name":"_r_name","type":"string"}],"name":"getRootName","outputs":[{"internalType":"string","name":"","type":"string"}],"stateMutability":"view","type":"function"},{"inputs":[{"internalType":"string","name":"_d_name","type":"string"}],"name":"setDipper","outputs":[],"stateMutability":"nonpayable","type":"function"},{"inputs":[{"internalType":"string","name":"_r_name","type":"string"},{"internalType":"uint256[]","name":"_rootLocation","type":"uint256[]"}],"name":"setRoot","outputs":[],"stateMutability":"nonpayable","type":"function"},{"inputs":[{"internalType":"string","name":"_r_name","type":"string"},{"internalType":"uint256","name":"_currentLocation","type":"uint256"}],"name":"verifyLocation","outputs":[{"internalType":"bool","name":"","type":"bool"}],"stateMutability":"nonpayable","type":"function"},{"stateMutability":"payable","type":"receive"}],"evm":{"bytecode":{"linkReferences":{},"object":"608060405234801561001057600080fd5b5061113e806100206000396000f3fe6080604052600436106100745760003560e01c80636ada80c51161004e5780636ada80c514610137578063ac6622d814610174578063c5f9f8a41461019d578063ce951864146101c65761007b565b80633343c105146100805780633dabfdf3146100bd57806352753f69146100fa5761007b565b3661007b57005b600080fd5b34801561008c57600080fd5b506100a760048036038101906100a29190610795565b610203565b6040516100b49190610852565b60405180910390f35b3480156100c957600080fd5b506100e460048036038101906100df91906109a9565b6102d6565b6040516100f19190610852565b60405180910390f35b34801561010657600080fd5b50610121600480360381019061011c91906109a9565b610389565b60405161012e9190610aba565b60405180910390f35b34801561014357600080fd5b5061015e60048036038101906101599190610b08565b610402565b60405161016b9190610b44565b60405180910390f35b34801561018057600080fd5b5061019b600480360381019061019691906109a9565b610493565b005b3480156101a957600080fd5b506101c460048036038101906101bf9190610c27565b6104e5565b005b3480156101d257600080fd5b506101ed60048036038101906101e89190610c9f565b6105c6565b6040516101fa9190610d16565b60405180910390f35b60606000808373ffffffffffffffffffffffffffffffffffffffff1673ffffffffffffffffffffffffffffffffffffffff168152602001908152602001600020600001805461025190610d60565b80601f016020809104026020016040519081016040528092919081815260200182805461027d90610d60565b80156102ca5780601f1061029f576101008083540402835291602001916102ca565b820191906000526020600020905b8154815290600101906020018083116102ad57829003601f168201915b50505050509050919050565b60606001826040516102e89190610dcd565b9081526020016040518091039020600001805461030490610d60565b80601f016020809104026020016040519081016040528092919081815260200182805461033090610d60565b801561037d5780601f106103525761010080835404028352916020019161037d565b820191906000526020600020905b81548152906001019060200180831161036057829003601f168201915b50505050509050919050565b606060018260405161039b9190610dcd565b90815260200160405180910390206001018054806020026020016040519081016040528092919081815260200182805480156103f657602002820191906000526020600020905b8154815260200190600101908083116103e2575b50505050509050919050565b6000816000803373ffffffffffffffffffffffffffffffffffffffff1673ffffffffffffffffffffffffffffffffffffffff168152602001908152602001600020600101819055506000803373ffffffffffffffffffffffffffffffffffffffff1673ffffffffffffffffffffffffffffffffffffffff168152602001908152602001600020600101549050919050565b806000803373ffffffffffffffffffffffffffffffffffffffff1673ffffffffffffffffffffffffffffffffffffffff16815260200190815260200160002060000190816104e19190610f90565b5050565b60405180604001604052808381526020018281525060018360405161050a9190610dcd565b9081526020016040518091039020600082015181600001908161052d9190610f90565b50602082015181600101908051906020019061054a9291906106b9565b509050506000803373ffffffffffffffffffffffffffffffffffffffff1673ffffffffffffffffffffffffffffffffffffffff168152602001908152602001600020600201829080600181540180825580915050600190039060005260206000200160009091909190915090816105c19190610f90565b505050565b60006105d182610402565b5060006001846040516105e49190610dcd565b908152602001604051809103902060010180548060200260200160405190810160405280929190818152602001828054801561063f57602002820191906000526020600020905b81548152602001906001019080831161062b575b505050505090506000805b825181101561069c578483828151811061066757610666611062565b5b60200260200101511461067a5781610688565b8180610685906110c0565b92505b508080610694906110c0565b91505061064a565b50600081036106ac5760006106af565b60015b9250505092915050565b8280548282559060005260206000209081019282156106f5579160200282015b828111156106f45782518255916020019190600101906106d9565b5b5090506107029190610706565b5090565b5b8082111561071f576000816000905550600101610707565b5090565b6000604051905090565b600080fd5b600080fd5b600073ffffffffffffffffffffffffffffffffffffffff82169050919050565b600061076282610737565b9050919050565b61077281610757565b811461077d57600080fd5b50565b60008135905061078f81610769565b92915050565b6000602082840312156107ab576107aa61072d565b5b60006107b984828501610780565b91505092915050565b600081519050919050565b600082825260208201905092915050565b60005b838110156107fc5780820151818401526020810190506107e1565b60008484015250505050565b6000601f19601f8301169050919050565b6000610824826107c2565b61082e81856107cd565b935061083e8185602086016107de565b61084781610808565b840191505092915050565b6000602082019050818103600083015261086c8184610819565b905092915050565b600080fd5b600080fd5b7f4e487b7100000000000000000000000000000000000000000000000000000000600052604160045260246000fd5b6108b682610808565b810181811067ffffffffffffffff821117156108d5576108d461087e565b5b80604052505050565b60006108e8610723565b90506108f482826108ad565b919050565b600067ffffffffffffffff8211156109145761091361087e565b5b61091d82610808565b9050602081019050919050565b82818337600083830152505050565b600061094c610947846108f9565b6108de565b90508281526020810184848401111561096857610967610879565b5b61097384828561092a565b509392505050565b600082601f8301126109905761098f610874565b5b81356109a0848260208601610939565b91505092915050565b6000602082840312156109bf576109be61072d565b5b600082013567ffffffffffffffff8111156109dd576109dc610732565b5b6109e98482850161097b565b91505092915050565b600081519050919050565b600082825260208201905092915050565b6000819050602082019050919050565b6000819050919050565b610a3181610a1e565b82525050565b6000610a438383610a28565b60208301905092915050565b6000602082019050919050565b6000610a67826109f2565b610a7181856109fd565b9350610a7c83610a0e565b8060005b83811015610aad578151610a948882610a37565b9750610a9f83610a4f565b925050600181019050610a80565b5085935050505092915050565b60006020820190508181036000830152610ad48184610a5c565b905092915050565b610ae581610a1e565b8114610af057600080fd5b50565b600081359050610b0281610adc565b92915050565b600060208284031215610b1e57610b1d61072d565b5b6000610b2c84828501610af3565b91505092915050565b610b3e81610a1e565b82525050565b6000602082019050610b596000830184610b35565b92915050565b600067ffffffffffffffff821115610b7a57610b7961087e565b5b602082029050602081019050919050565b600080fd5b6000610ba3610b9e84610b5f565b6108de565b90508083825260208201905060208402830185811115610bc657610bc5610b8b565b5b835b81811015610bef5780610bdb8882610af3565b845260208401935050602081019050610bc8565b5050509392505050565b600082601f830112610c0e57610c0d610874565b5b8135610c1e848260208601610b90565b91505092915050565b60008060408385031215610c3e57610c3d61072d565b5b600083013567ffffffffffffffff811115610c5c57610c5b610732565b5b610c688582860161097b565b925050602083013567ffffffffffffffff811115610c8957610c88610732565b5b610c9585828601610bf9565b9150509250929050565b60008060408385031215610cb657610cb561072d565b5b600083013567ffffffffffffffff811115610cd457610cd3610732565b5b610ce08582860161097b565b9250506020610cf185828601610af3565b9150509250929050565b60008115159050919050565b610d1081610cfb565b82525050565b6000602082019050610d2b6000830184610d07565b92915050565b7f4e487b7100000000000000000000000000000000000000000000000000000000600052602260045260246000fd5b60006002820490506001821680610d7857607f821691505b602082108103610d8b57610d8a610d31565b5b50919050565b600081905092915050565b6000610da7826107c2565b610db18185610d91565b9350610dc18185602086016107de565b80840191505092915050565b6000610dd98284610d9c565b915081905092915050565b60008190508160005260206000209050919050565b60006020601f8301049050919050565b600082821b905092915050565b600060088302610e467fffffffffffffffffffffffffffffffffffffffffffffffffffffffffffffffff82610e09565b610e508683610e09565b95508019841693508086168417925050509392505050565b6000819050919050565b6000610e8d610e88610e8384610a1e565b610e68565b610a1e565b9050919050565b6000819050919050565b610ea783610e72565b610ebb610eb382610e94565b848454610e16565b825550505050565b600090565b610ed0610ec3565b610edb818484610e9e565b505050565b5b81811015610eff57610ef4600082610ec8565b600181019050610ee1565b5050565b601f821115610f4457610f1581610de4565b610f1e84610df9565b81016020851015610f2d578190505b610f41610f3985610df9565b830182610ee0565b50505b505050565b600082821c905092915050565b6000610f6760001984600802610f49565b1980831691505092915050565b6000610f808383610f56565b9150826002028217905092915050565b610f99826107c2565b67ffffffffffffffff811115610fb257610fb161087e565b5b610fbc8254610d60565b610fc7828285610f03565b600060209050601f831160018114610ffa5760008415610fe8578287015190505b610ff28582610f74565b86555061105a565b601f19841661100886610de4565b60005b828110156110305784890151825560018201915060208501945060208101905061100b565b8683101561104d5784890151611049601f891682610f56565b8355505b6001600288020188555050505b505050505050565b7f4e487b7100000000000000000000000000000000000000000000000000000000600052603260045260246000fd5b7f4e487b7100000000000000000000000000000000000000000000000000000000600052601160045260246000fd5b60006110cb82610a1e565b91507fffffffffffffffffffffffffffffffffffffffffffffffffffffffffffffffff82036110fd576110fc611091565b5b60018201905091905056fea2646970667358221220a1cd6cad511fb29edc8507be1bcd80bdaa5b9a6a5571ea783aaf5fbdd54ab32264736f6c63430008110033","opcodes":"PUSH1 0x80 PUSH1 0x40 MSTORE CALLVALUE DUP1 ISZERO PUSH2 0x10 JUMPI PUSH1 0x0 DUP1 REVERT JUMPDEST POP PUSH2 0x113E DUP1 PUSH2 0x20 PUSH1 0x0 CODECOPY PUSH1 0x0 RETURN INVALID PUSH1 0x80 PUSH1 0x40 MSTORE PUSH1 0x4 CALLDATASIZE LT PUSH2 0x74 JUMPI PUSH1 0x0 CALLDATALOAD PUSH1 0xE0 SHR DUP1 PUSH4 0x6ADA80C5 GT PUSH2 0x4E JUMPI DUP1 PUSH4 0x6ADA80C5 EQ PUSH2 0x137 JUMPI DUP1 PUSH4 0xAC6622D8 EQ PUSH2 0x174 JUMPI DUP1 PUSH4 0xC5F9F8A4 EQ PUSH2 0x19D JUMPI DUP1 PUSH4 0xCE951864 EQ PUSH2 0x1C6 JUMPI PUSH2 0x7B JUMP JUMPDEST DUP1 PUSH4 0x3343C105 EQ PUSH2 0x80 JUMPI DUP1 PUSH4 0x3DABFDF3 EQ PUSH2 0xBD JUMPI DUP1 PUSH4 0x52753F69 EQ PUSH2 0xFA JUMPI PUSH2 0x7B JUMP JUMPDEST CALLDATASIZE PUSH2 0x7B JUMPI STOP JUMPDEST PUSH1 0x0 DUP1 REVERT JUMPDEST CALLVALUE DUP1 ISZERO PUSH2 0x8C JUMPI PUSH1 0x0 DUP1 REVERT JUMPDEST POP PUSH2 0xA7 PUSH1 0x4 DUP1 CALLDATASIZE SUB DUP2 ADD SWAP1 PUSH2 0xA2 SWAP2 SWAP1 PUSH2 0x795 JUMP JUMPDEST PUSH2 0x203 JUMP JUMPDEST PUSH1 0x40 MLOAD PUSH2 0xB4 SWAP2 SWAP1 PUSH2 0x852 JUMP JUMPDEST PUSH1 0x40 MLOAD DUP1 SWAP2 SUB SWAP1 RETURN JUMPDEST CALLVALUE DUP1 ISZERO PUSH2 0xC9 JUMPI PUSH1 0x0 DUP1 REVERT JUMPDEST POP PUSH2 0xE4 PUSH1 0x4 DUP1 CALLDATASIZE SUB DUP2 ADD SWAP1 PUSH2 0xDF SWAP2 SWAP1 PUSH2 0x9A9 JUMP JUMPDEST PUSH2 0x2D6 JUMP JUMPDEST PUSH1 0x40 MLOAD PUSH2 0xF1 SWAP2 SWAP1 PUSH2 0x852 JUMP JUMPDEST PUSH1 0x40 MLOAD DUP1 SWAP2 SUB SWAP1 RETURN JUMPDEST CALLVALUE DUP1 ISZERO PUSH2 0x106 JUMPI PUSH1 0x0 DUP1 REVERT JUMPDEST POP PUSH2 0x121 PUSH1 0x4 DUP1 CALLDATASIZE SUB DUP2 ADD SWAP1 PUSH2 0x11C SWAP2 SWAP1 PUSH2 0x9A9 JUMP JUMPDEST PUSH2 0x389 JUMP JUMPDEST PUSH1 0x40 MLOAD PUSH2 0x12E SWAP2 SWAP1 PUSH2 0xABA JUMP JUMPDEST PUSH1 0x40 MLOAD DUP1 SWAP2 SUB SWAP1 RETURN JUMPDEST CALLVALUE DUP1 ISZERO PUSH2 0x143 JUMPI PUSH1 0x0 DUP1 REVERT JUMPDEST POP PUSH2 0x15E PUSH1 0x4 DUP1 CALLDATASIZE SUB DUP2 ADD SWAP1 PUSH2 0x159 SWAP2 SWAP1 PUSH2 0xB08 JUMP JUMPDEST PUSH2 0x402 JUMP JUMPDEST PUSH1 0x40 MLOAD PUSH2 0x16B SWAP2 SWAP1 PUSH2 0xB44 JUMP JUMPDEST PUSH1 0x40 MLOAD DUP1 SWAP2 SUB SWAP1 RETURN JUMPDEST CALLVALUE DUP1 ISZERO PUSH2 0x180 JUMPI PUSH1 0x0 DUP1 REVERT JUMPDEST POP PUSH2 0x19B PUSH1 0x4 DUP1 CALLDATASIZE SUB DUP2 ADD SWAP1 PUSH2 0x196 SWAP2 SWAP1 PUSH2 0x9A9 JUMP JUMPDEST PUSH2 0x493 JUMP JUMPDEST STOP JUMPDEST CALLVALUE DUP1 ISZERO PUSH2 0x1A9 JUMPI PUSH1 0x0 DUP1 REVERT JUMPDEST POP PUSH2 0x1C4 PUSH1 0x4 DUP1 CALLDATASIZE SUB DUP2 ADD SWAP1 PUSH2 0x1BF SWAP2 SWAP1 PUSH2 0xC27 JUMP JUMPDEST PUSH2 0x4E5 JUMP JUMPDEST STOP JUMPDEST CALLVALUE DUP1 ISZERO PUSH2 0x1D2 JUMPI PUSH1 0x0 DUP1 REVERT JUMPDEST POP PUSH2 0x1ED PUSH1 0x4 DUP1 CALLDATASIZE SUB DUP2 ADD SWAP1 PUSH2 0x1E8 SWAP2 SWAP1 PUSH2 0xC9F JUMP JUMPDEST PUSH2 0x5C6 JUMP JUMPDEST PUSH1 0x40 MLOAD PUSH2 0x1FA SWAP2 SWAP1 PUSH2 0xD16 JUMP JUMPDEST PUSH1 0x40 MLOAD DUP1 SWAP2 SUB SWAP1 RETURN JUMPDEST PUSH1 0x60 PUSH1 0x0 DUP1 DUP4 PUSH20 0xFFFFFFFFFFFFFFFFFFFFFFFFFFFFFFFFFFFFFFFF AND PUSH20 0xFFFFFFFFFFFFFFFFFFFFFFFFFFFFFFFFFFFFFFFF AND DUP2 MSTORE PUSH1 0x20 ADD SWAP1 DUP2 MSTORE PUSH1 0x20 ADD PUSH1 0x0 KECCAK256 PUSH1 0x0 ADD DUP1 SLOAD PUSH2 0x251 SWAP1 PUSH2 0xD60 JUMP JUMPDEST DUP1 PUSH1 0x1F ADD PUSH1 0x20 DUP1 SWAP2 DIV MUL PUSH1 0x20 ADD PUSH1 0x40 MLOAD SWAP1 DUP2 ADD PUSH1 0x40 MSTORE DUP1 SWAP3 SWAP2 SWAP1 DUP2 DUP2 MSTORE PUSH1 0x20 ADD DUP3 DUP1 SLOAD PUSH2 0x27D SWAP1 PUSH2 0xD60 JUMP JUMPDEST DUP1 ISZERO PUSH2 0x2CA JUMPI DUP1 PUSH1 0x1F LT PUSH2 0x29F JUMPI PUSH2 0x100 DUP1 DUP4 SLOAD DIV MUL DUP4 MSTORE SWAP2 PUSH1 0x20 ADD SWAP2 PUSH2 0x2CA JUMP JUMPDEST DUP3 ADD SWAP2 SWAP1 PUSH1 0x0 MSTORE PUSH1 0x20 PUSH1 0x0 KECCAK256 SWAP1 JUMPDEST DUP2 SLOAD DUP2 MSTORE SWAP1 PUSH1 0x1 ADD SWAP1 PUSH1 0x20 ADD DUP1 DUP4 GT PUSH2 0x2AD JUMPI DUP3 SWAP1 SUB PUSH1 0x1F AND DUP3 ADD SWAP2 JUMPDEST POP POP POP POP POP SWAP1 POP SWAP2 SWAP1 POP JUMP JUMPDEST PUSH1 0x60 PUSH1 0x1 DUP3 PUSH1 0x40 MLOAD PUSH2 0x2E8 SWAP2 SWAP1 PUSH2 0xDCD JUMP JUMPDEST SWAP1 DUP2 MSTORE PUSH1 0x20 ADD PUSH1 0x40 MLOAD DUP1 SWAP2 SUB SWAP1 KECCAK256 PUSH1 0x0 ADD DUP1 SLOAD PUSH2 0x304 SWAP1 PUSH2 0xD60 JUMP JUMPDEST DUP1 PUSH1 0x1F ADD PUSH1 0x20 DUP1 SWAP2 DIV MUL PUSH1 0x20 ADD PUSH1 0x40 MLOAD SWAP1 DUP2 ADD PUSH1 0x40 MSTORE DUP1 SWAP3 SWAP2 SWAP1 DUP2 DUP2 MSTORE PUSH1 0x20 ADD DUP3 DUP1 SLOAD PUSH2 0x330 SWAP1 PUSH2 0xD60 JUMP JUMPDEST DUP1 ISZERO PUSH2 0x37D JUMPI DUP1 PUSH1 0x1F LT PUSH2 0x352 JUMPI PUSH2 0x100 DUP1 DUP4 SLOAD DIV MUL DUP4 MSTORE SWAP2 PUSH1 0x20 ADD SWAP2 PUSH2 0x37D JUMP JUMPDEST DUP3 ADD SWAP2 SWAP1 PUSH1 0x0 MSTORE PUSH1 0x20 PUSH1 0x0 KECCAK256 SWAP1 JUMPDEST DUP2 SLOAD DUP2 MSTORE SWAP1 PUSH1 0x1 ADD SWAP1 PUSH1 0x20 ADD DUP1 DUP4 GT PUSH2 0x360 JUMPI DUP3 SWAP1 SUB PUSH1 0x1F AND DUP3 ADD SWAP2 JUMPDEST POP POP POP POP POP SWAP1 POP SWAP2 SWAP1 POP JUMP JUMPDEST PUSH1 0x60 PUSH1 0x1 DUP3 PUSH1 0x40 MLOAD PUSH2 0x39B SWAP2 SWAP1 PUSH2 0xDCD JUMP JUMPDEST SWAP1 DUP2 MSTORE PUSH1 0x20 ADD PUSH1 0x40 MLOAD DUP1 SWAP2 SUB SWAP1 KECCAK256 PUSH1 0x1 ADD DUP1 SLOAD DUP1 PUSH1 0x20 MUL PUSH1 0x20 ADD PUSH1 0x40 MLOAD SWAP1 DUP2 ADD PUSH1 0x40 MSTORE DUP1 SWAP3 SWAP2 SWAP1 DUP2 DUP2 MSTORE PUSH1 0x20 ADD DUP3 DUP1 SLOAD DUP1 ISZERO PUSH2 0x3F6 JUMPI PUSH1 0x20 MUL DUP3 ADD SWAP2 SWAP1 PUSH1 0x0 MSTORE PUSH1 0x20 PUSH1 0x0 KECCAK256 SWAP1 JUMPDEST DUP2 SLOAD DUP2 MSTORE PUSH1 0x20 ADD SWAP1 PUSH1 0x1 ADD SWAP1 DUP1 DUP4 GT PUSH2 0x3E2 JUMPI JUMPDEST POP POP POP POP POP SWAP1 POP SWAP2 SWAP1 POP JUMP JUMPDEST PUSH1 0x0 DUP2 PUSH1 0x0 DUP1 CALLER PUSH20 0xFFFFFFFFFFFFFFFFFFFFFFFFFFFFFFFFFFFFFFFF AND PUSH20 0xFFFFFFFFFFFFFFFFFFFFFFFFFFFFFFFFFFFFFFFF AND DUP2 MSTORE PUSH1 0x20 ADD SWAP1 DUP2 MSTORE PUSH1 0x20 ADD PUSH1 0x0 KECCAK256 PUSH1 0x1 ADD DUP2 SWAP1 SSTORE POP PUSH1 0x0 DUP1 CALLER PUSH20 0xFFFFFFFFFFFFFFFFFFFFFFFFFFFFFFFFFFFFFFFF AND PUSH20 0xFFFFFFFFFFFFFFFFFFFFFFFFFFFFFFFFFFFFFFFF AND DUP2 MSTORE PUSH1 0x20 ADD SWAP1 DUP2 MSTORE PUSH1 0x20 ADD PUSH1 0x0 KECCAK256 PUSH1 0x1 ADD SLOAD SWAP1 POP SWAP2 SWAP1 POP JUMP JUMPDEST DUP1 PUSH1 0x0 DUP1 CALLER PUSH20 0xFFFFFFFFFFFFFFFFFFFFFFFFFFFFFFFFFFFFFFFF AND PUSH20 0xFFFFFFFFFFFFFFFFFFFFFFFFFFFFFFFFFFFFFFFF AND DUP2 MSTORE PUSH1 0x20 ADD SWAP1 DUP2 MSTORE PUSH1 0x20 ADD PUSH1 0x0 KECCAK256 PUSH1 0x0 ADD SWAP1 DUP2 PUSH2 0x4E1 SWAP2 SWAP1 PUSH2 0xF90 JUMP JUMPDEST POP POP JUMP JUMPDEST PUSH1 0x40 MLOAD DUP1 PUSH1 0x40 ADD PUSH1 0x40 MSTORE DUP1 DUP4 DUP2 MSTORE PUSH1 0x20 ADD DUP3 DUP2 MSTORE POP PUSH1 0x1 DUP4 PUSH1 0x40 MLOAD PUSH2 0x50A SWAP2 SWAP1 PUSH2 0xDCD JUMP JUMPDEST SWAP1 DUP2 MSTORE PUSH1 0x20 ADD PUSH1 0x40 MLOAD DUP1 SWAP2 SUB SWAP1 KECCAK256 PUSH1 0x0 DUP3 ADD MLOAD DUP2 PUSH1 0x0 ADD SWAP1 DUP2 PUSH2 0x52D SWAP2 SWAP1 PUSH2 0xF90 JUMP JUMPDEST POP PUSH1 0x20 DUP3 ADD MLOAD DUP2 PUSH1 0x1 ADD SWAP1 DUP1 MLOAD SWAP1 PUSH1 0x20 ADD SWAP1 PUSH2 0x54A SWAP3 SWAP2 SWAP1 PUSH2 0x6B9 JUMP JUMPDEST POP SWAP1 POP POP PUSH1 0x0 DUP1 CALLER PUSH20 0xFFFFFFFFFFFFFFFFFFFFFFFFFFFFFFFFFFFFFFFF AND PUSH20 0xFFFFFFFFFFFFFFFFFFFFFFFFFFFFFFFFFFFFFFFF AND DUP2 MSTORE PUSH1 0x20 ADD SWAP1 DUP2 MSTORE PUSH1 0x20 ADD PUSH1 0x0 KECCAK256 PUSH1 0x2 ADD DUP3 SWAP1 DUP1 PUSH1 0x1 DUP2 SLOAD ADD DUP1 DUP3 SSTORE DUP1 SWAP2 POP POP PUSH1 0x1 SWAP1 SUB SWAP1 PUSH1 0x0 MSTORE PUSH1 0x20 PUSH1 0x0 KECCAK256 ADD PUSH1 0x0 SWAP1 SWAP2 SWAP1 SWAP2 SWAP1 SWAP2 POP SWAP1 DUP2 PUSH2 0x5C1 SWAP2 SWAP1 PUSH2 0xF90 JUMP JUMPDEST POP POP POP JUMP JUMPDEST PUSH1 0x0 PUSH2 0x5D1 DUP3 PUSH2 0x402 JUMP JUMPDEST POP PUSH1 0x0 PUSH1 0x1 DUP5 PUSH1 0x40 MLOAD PUSH2 0x5E4 SWAP2 SWAP1 PUSH2 0xDCD JUMP JUMPDEST SWAP1 DUP2 MSTORE PUSH1 0x20 ADD PUSH1 0x40 MLOAD DUP1 SWAP2 SUB SWAP1 KECCAK256 PUSH1 0x1 ADD DUP1 SLOAD DUP1 PUSH1 0x20 MUL PUSH1 0x20 ADD PUSH1 0x40 MLOAD SWAP1 DUP2 ADD PUSH1 0x40 MSTORE DUP1 SWAP3 SWAP2 SWAP1 DUP2 DUP2 MSTORE PUSH1 0x20 ADD DUP3 DUP1 SLOAD DUP1 ISZERO PUSH2 0x63F JUMPI PUSH1 0x20 MUL DUP3 ADD SWAP2 SWAP1 PUSH1 0x0 MSTORE PUSH1 0x20 PUSH1 0x0 KECCAK256 SWAP1 JUMPDEST DUP2 SLOAD DUP2 MSTORE PUSH1 0x20 ADD SWAP1 PUSH1 0x1 ADD SWAP1 DUP1 DUP4 GT PUSH2 0x62B JUMPI JUMPDEST POP POP POP POP POP SWAP1 POP PUSH1 0x0 DUP1 JUMPDEST DUP3 MLOAD DUP2 LT ISZERO PUSH2 0x69C JUMPI DUP5 DUP4 DUP3 DUP2 MLOAD DUP2 LT PUSH2 0x667 JUMPI PUSH2 0x666 PUSH2 0x1062 JUMP JUMPDEST JUMPDEST PUSH1 0x20 MUL PUSH1 0x20 ADD ADD MLOAD EQ PUSH2 0x67A JUMPI DUP2 PUSH2 0x688 JUMP JUMPDEST DUP2 DUP1 PUSH2 0x685 SWAP1 PUSH2 0x10C0 JUMP JUMPDEST SWAP3 POP JUMPDEST POP DUP1 DUP1 PUSH2 0x694 SWAP1 PUSH2 0x10C0 JUMP JUMPDEST SWAP2 POP POP PUSH2 0x64A JUMP JUMPDEST POP PUSH1 0x0 DUP2 SUB PUSH2 0x6AC JUMPI PUSH1 0x0 PUSH2 0x6AF JUMP JUMPDEST PUSH1 0x1 JUMPDEST SWAP3 POP POP POP SWAP3 SWAP2 POP POP JUMP JUMPDEST DUP3 DUP1 SLOAD DUP3 DUP3 SSTORE SWAP1 PUSH1 0x0 MSTORE PUSH1 0x20 PUSH1 0x0 KECCAK256 SWAP1 DUP2 ADD SWAP3 DUP3 ISZERO PUSH2 0x6F5 JUMPI SWAP2 PUSH1 0x20 MUL DUP3 ADD JUMPDEST DUP3 DUP2 GT ISZERO PUSH2 0x6F4 JUMPI DUP3 MLOAD DUP3 SSTORE SWAP2 PUSH1 0x20 ADD SWAP2 SWAP1 PUSH1 0x1 ADD SWAP1 PUSH2 0x6D9 JUMP JUMPDEST JUMPDEST POP SWAP1 POP PUSH2 0x702 SWAP2 SWAP1 PUSH2 0x706 JUMP JUMPDEST POP SWAP1 JUMP JUMPDEST JUMPDEST DUP1 DUP3 GT ISZERO PUSH2 0x71F JUMPI PUSH1 0x0 DUP2 PUSH1 0x0 SWAP1 SSTORE POP PUSH1 0x1 ADD PUSH2 0x707 JUMP JUMPDEST POP SWAP1 JUMP JUMPDEST PUSH1 0x0 PUSH1 0x40 MLOAD SWAP1 POP SWAP1 JUMP JUMPDEST PUSH1 0x0 DUP1 REVERT JUMPDEST PUSH1 0x0 DUP1 REVERT JUMPDEST PUSH1 0x0 PUSH20 0xFFFFFFFFFFFFFFFFFFFFFFFFFFFFFFFFFFFFFFFF DUP3 AND SWAP1 POP SWAP2 SWAP1 POP JUMP JUMPDEST PUSH1 0x0 PUSH2 0x762 DUP3 PUSH2 0x737 JUMP JUMPDEST SWAP1 POP SWAP2 SWAP1 POP JUMP JUMPDEST PUSH2 0x772 DUP2 PUSH2 0x757 JUMP JUMPDEST DUP2 EQ PUSH2 0x77D JUMPI PUSH1 0x0 DUP1 REVERT JUMPDEST POP JUMP JUMPDEST PUSH1 0x0 DUP2 CALLDATALOAD SWAP1 POP PUSH2 0x78F DUP2 PUSH2 0x769 JUMP JUMPDEST SWAP3 SWAP2 POP POP JUMP JUMPDEST PUSH1 0x0 PUSH1 0x20 DUP3 DUP5 SUB SLT ISZERO PUSH2 0x7AB JUMPI PUSH2 0x7AA PUSH2 0x72D JUMP JUMPDEST JUMPDEST PUSH1 0x0 PUSH2 0x7B9 DUP5 DUP3 DUP6 ADD PUSH2 0x780 JUMP JUMPDEST SWAP2 POP POP SWAP3 SWAP2 POP POP JUMP JUMPDEST PUSH1 0x0 DUP2 MLOAD SWAP1 POP SWAP2 SWAP1 POP JUMP JUMPDEST PUSH1 0x0 DUP3 DUP3 MSTORE PUSH1 0x20 DUP3 ADD SWAP1 POP SWAP3 SWAP2 POP POP JUMP JUMPDEST PUSH1 0x0 JUMPDEST DUP4 DUP2 LT ISZERO PUSH2 0x7FC JUMPI DUP1 DUP3 ADD MLOAD DUP2 DUP5 ADD MSTORE PUSH1 0x20 DUP2 ADD SWAP1 POP PUSH2 0x7E1 JUMP JUMPDEST PUSH1 0x0 DUP5 DUP5 ADD MSTORE POP POP POP POP JUMP JUMPDEST PUSH1 0x0 PUSH1 0x1F NOT PUSH1 0x1F DUP4 ADD AND SWAP1 POP SWAP2 SWAP1 POP JUMP JUMPDEST PUSH1 0x0 PUSH2 0x824 DUP3 PUSH2 0x7C2 JUMP JUMPDEST PUSH2 0x82E DUP2 DUP6 PUSH2 0x7CD JUMP JUMPDEST SWAP4 POP PUSH2 0x83E DUP2 DUP6 PUSH1 0x20 DUP7 ADD PUSH2 0x7DE JUMP JUMPDEST PUSH2 0x847 DUP2 PUSH2 0x808 JUMP JUMPDEST DUP5 ADD SWAP2 POP POP SWAP3 SWAP2 POP POP JUMP JUMPDEST PUSH1 0x0 PUSH1 0x20 DUP3 ADD SWAP1 POP DUP2 DUP2 SUB PUSH1 0x0 DUP4 ADD MSTORE PUSH2 0x86C DUP2 DUP5 PUSH2 0x819 JUMP JUMPDEST SWAP1 POP SWAP3 SWAP2 POP POP JUMP JUMPDEST PUSH1 0x0 DUP1 REVERT JUMPDEST PUSH1 0x0 DUP1 REVERT JUMPDEST PUSH32 0x4E487B7100000000000000000000000000000000000000000000000000000000 PUSH1 0x0 MSTORE PUSH1 0x41 PUSH1 0x4 MSTORE PUSH1 0x24 PUSH1 0x0 REVERT JUMPDEST PUSH2 0x8B6 DUP3 PUSH2 0x808 JUMP JUMPDEST DUP2 ADD DUP2 DUP2 LT PUSH8 0xFFFFFFFFFFFFFFFF DUP3 GT OR ISZERO PUSH2 0x8D5 JUMPI PUSH2 0x8D4 PUSH2 0x87E JUMP JUMPDEST JUMPDEST DUP1 PUSH1 0x40 MSTORE POP POP POP JUMP JUMPDEST PUSH1 0x0 PUSH2 0x8E8 PUSH2 0x723 JUMP JUMPDEST SWAP1 POP PUSH2 0x8F4 DUP3 DUP3 PUSH2 0x8AD JUMP JUMPDEST SWAP2 SWAP1 POP JUMP JUMPDEST PUSH1 0x0 PUSH8 0xFFFFFFFFFFFFFFFF DUP3 GT ISZERO PUSH2 0x914 JUMPI PUSH2 0x913 PUSH2 0x87E JUMP JUMPDEST JUMPDEST PUSH2 0x91D DUP3 PUSH2 0x808 JUMP JUMPDEST SWAP1 POP PUSH1 0x20 DUP2 ADD SWAP1 POP SWAP2 SWAP1 POP JUMP JUMPDEST DUP3 DUP2 DUP4 CALLDATACOPY PUSH1 0x0 DUP4 DUP4 ADD MSTORE POP POP POP JUMP JUMPDEST PUSH1 0x0 PUSH2 0x94C PUSH2 0x947 DUP5 PUSH2 0x8F9 JUMP JUMPDEST PUSH2 0x8DE JUMP JUMPDEST SWAP1 POP DUP3 DUP2 MSTORE PUSH1 0x20 DUP2 ADD DUP5 DUP5 DUP5 ADD GT ISZERO PUSH2 0x968 JUMPI PUSH2 0x967 PUSH2 0x879 JUMP JUMPDEST JUMPDEST PUSH2 0x973 DUP5 DUP3 DUP6 PUSH2 0x92A JUMP JUMPDEST POP SWAP4 SWAP3 POP POP POP JUMP JUMPDEST PUSH1 0x0 DUP3 PUSH1 0x1F DUP4 ADD SLT PUSH2 0x990 JUMPI PUSH2 0x98F PUSH2 0x874 JUMP JUMPDEST JUMPDEST DUP2 CALLDATALOAD PUSH2 0x9A0 DUP5 DUP3 PUSH1 0x20 DUP7 ADD PUSH2 0x939 JUMP JUMPDEST SWAP2 POP POP SWAP3 SWAP2 POP POP JUMP JUMPDEST PUSH1 0x0 PUSH1 0x20 DUP3 DUP5 SUB SLT ISZERO PUSH2 0x9BF JUMPI PUSH2 0x9BE PUSH2 0x72D JUMP JUMPDEST JUMPDEST PUSH1 0x0 DUP3 ADD CALLDATALOAD PUSH8 0xFFFFFFFFFFFFFFFF DUP2 GT ISZERO PUSH2 0x9DD JUMPI PUSH2 0x9DC PUSH2 0x732 JUMP JUMPDEST JUMPDEST PUSH2 0x9E9 DUP5 DUP3 DUP6 ADD PUSH2 0x97B JUMP JUMPDEST SWAP2 POP POP SWAP3 SWAP2 POP POP JUMP JUMPDEST PUSH1 0x0 DUP2 MLOAD SWAP1 POP SWAP2 SWAP1 POP JUMP JUMPDEST PUSH1 0x0 DUP3 DUP3 MSTORE PUSH1 0x20 DUP3 ADD SWAP1 POP SWAP3 SWAP2 POP POP JUMP JUMPDEST PUSH1 0x0 DUP2 SWAP1 POP PUSH1 0x20 DUP3 ADD SWAP1 POP SWAP2 SWAP1 POP JUMP JUMPDEST PUSH1 0x0 DUP2 SWAP1 POP SWAP2 SWAP1 POP JUMP JUMPDEST PUSH2 0xA31 DUP2 PUSH2 0xA1E JUMP JUMPDEST DUP3 MSTORE POP POP JUMP JUMPDEST PUSH1 0x0 PUSH2 0xA43 DUP4 DUP4 PUSH2 0xA28 JUMP JUMPDEST PUSH1 0x20 DUP4 ADD SWAP1 POP SWAP3 SWAP2 POP POP JUMP JUMPDEST PUSH1 0x0 PUSH1 0x20 DUP3 ADD SWAP1 POP SWAP2 SWAP1 POP JUMP JUMPDEST PUSH1 0x0 PUSH2 0xA67 DUP3 PUSH2 0x9F2 JUMP JUMPDEST PUSH2 0xA71 DUP2 DUP6 PUSH2 0x9FD JUMP JUMPDEST SWAP4 POP PUSH2 0xA7C DUP4 PUSH2 0xA0E JUMP JUMPDEST DUP1 PUSH1 0x0 JUMPDEST DUP4 DUP2 LT ISZERO PUSH2 0xAAD JUMPI DUP2 MLOAD PUSH2 0xA94 DUP9 DUP3 PUSH2 0xA37 JUMP JUMPDEST SWAP8 POP PUSH2 0xA9F DUP4 PUSH2 0xA4F JUMP JUMPDEST SWAP3 POP POP PUSH1 0x1 DUP2 ADD SWAP1 POP PUSH2 0xA80 JUMP JUMPDEST POP DUP6 SWAP4 POP POP POP POP SWAP3 SWAP2 POP POP JUMP JUMPDEST PUSH1 0x0 PUSH1 0x20 DUP3 ADD SWAP1 POP DUP2 DUP2 SUB PUSH1 0x0 DUP4 ADD MSTORE PUSH2 0xAD4 DUP2 DUP5 PUSH2 0xA5C JUMP JUMPDEST SWAP1 POP SWAP3 SWAP2 POP POP JUMP JUMPDEST PUSH2 0xAE5 DUP2 PUSH2 0xA1E JUMP JUMPDEST DUP2 EQ PUSH2 0xAF0 JUMPI PUSH1 0x0 DUP1 REVERT JUMPDEST POP JUMP JUMPDEST PUSH1 0x0 DUP2 CALLDATALOAD SWAP1 POP PUSH2 0xB02 DUP2 PUSH2 0xADC JUMP JUMPDEST SWAP3 SWAP2 POP POP JUMP JUMPDEST PUSH1 0x0 PUSH1 0x20 DUP3 DUP5 SUB SLT ISZERO PUSH2 0xB1E JUMPI PUSH2 0xB1D PUSH2 0x72D JUMP JUMPDEST JUMPDEST PUSH1 0x0 PUSH2 0xB2C DUP5 DUP3 DUP6 ADD PUSH2 0xAF3 JUMP JUMPDEST SWAP2 POP POP SWAP3 SWAP2 POP POP JUMP JUMPDEST PUSH2 0xB3E DUP2 PUSH2 0xA1E JUMP JUMPDEST DUP3 MSTORE POP POP JUMP JUMPDEST PUSH1 0x0 PUSH1 0x20 DUP3 ADD SWAP1 POP PUSH2 0xB59 PUSH1 0x0 DUP4 ADD DUP5 PUSH2 0xB35 JUMP JUMPDEST SWAP3 SWAP2 POP POP JUMP JUMPDEST PUSH1 0x0 PUSH8 0xFFFFFFFFFFFFFFFF DUP3 GT ISZERO PUSH2 0xB7A JUMPI PUSH2 0xB79 PUSH2 0x87E JUMP JUMPDEST JUMPDEST PUSH1 0x20 DUP3 MUL SWAP1 POP PUSH1 0x20 DUP2 ADD SWAP1 POP SWAP2 SWAP1 POP JUMP JUMPDEST PUSH1 0x0 DUP1 REVERT JUMPDEST PUSH1 0x0 PUSH2 0xBA3 PUSH2 0xB9E DUP5 PUSH2 0xB5F JUMP JUMPDEST PUSH2 0x8DE JUMP JUMPDEST SWAP1 POP DUP1 DUP4 DUP3 MSTORE PUSH1 0x20 DUP3 ADD SWAP1 POP PUSH1 0x20 DUP5 MUL DUP4 ADD DUP6 DUP2 GT ISZERO PUSH2 0xBC6 JUMPI PUSH2 0xBC5 PUSH2 0xB8B JUMP JUMPDEST JUMPDEST DUP4 JUMPDEST DUP2 DUP2 LT ISZERO PUSH2 0xBEF JUMPI DUP1 PUSH2 0xBDB DUP9 DUP3 PUSH2 0xAF3 JUMP JUMPDEST DUP5 MSTORE PUSH1 0x20 DUP5 ADD SWAP4 POP POP PUSH1 0x20 DUP2 ADD SWAP1 POP PUSH2 0xBC8 JUMP JUMPDEST POP POP POP SWAP4 SWAP3 POP POP POP JUMP JUMPDEST PUSH1 0x0 DUP3 PUSH1 0x1F DUP4 ADD SLT PUSH2 0xC0E JUMPI PUSH2 0xC0D PUSH2 0x874 JUMP JUMPDEST JUMPDEST DUP2 CALLDATALOAD PUSH2 0xC1E DUP5 DUP3 PUSH1 0x20 DUP7 ADD PUSH2 0xB90 JUMP JUMPDEST SWAP2 POP POP SWAP3 SWAP2 POP POP JUMP JUMPDEST PUSH1 0x0 DUP1 PUSH1 0x40 DUP4 DUP6 SUB SLT ISZERO PUSH2 0xC3E JUMPI PUSH2 0xC3D PUSH2 0x72D JUMP JUMPDEST JUMPDEST PUSH1 0x0 DUP4 ADD CALLDATALOAD PUSH8 0xFFFFFFFFFFFFFFFF DUP2 GT ISZERO PUSH2 0xC5C JUMPI PUSH2 0xC5B PUSH2 0x732 JUMP JUMPDEST JUMPDEST PUSH2 0xC68 DUP6 DUP3 DUP7 ADD PUSH2 0x97B JUMP JUMPDEST SWAP3 POP POP PUSH1 0x20 DUP4 ADD CALLDATALOAD PUSH8 0xFFFFFFFFFFFFFFFF DUP2 GT ISZERO PUSH2 0xC89 JUMPI PUSH2 0xC88 PUSH2 0x732 JUMP JUMPDEST JUMPDEST PUSH2 0xC95 DUP6 DUP3 DUP7 ADD PUSH2 0xBF9 JUMP JUMPDEST SWAP2 POP POP SWAP3 POP SWAP3 SWAP1 POP JUMP JUMPDEST PUSH1 0x0 DUP1 PUSH1 0x40 DUP4 DUP6 SUB SLT ISZERO PUSH2 0xCB6 JUMPI PUSH2 0xCB5 PUSH2 0x72D JUMP JUMPDEST JUMPDEST PUSH1 0x0 DUP4 ADD CALLDATALOAD PUSH8 0xFFFFFFFFFFFFFFFF DUP2 GT ISZERO PUSH2 0xCD4 JUMPI PUSH2 0xCD3 PUSH2 0x732 JUMP JUMPDEST JUMPDEST PUSH2 0xCE0 DUP6 DUP3 DUP7 ADD PUSH2 0x97B JUMP JUMPDEST SWAP3 POP POP PUSH1 0x20 PUSH2 0xCF1 DUP6 DUP3 DUP7 ADD PUSH2 0xAF3 JUMP JUMPDEST SWAP2 POP POP SWAP3 POP SWAP3 SWAP1 POP JUMP JUMPDEST PUSH1 0x0 DUP2 ISZERO ISZERO SWAP1 POP SWAP2 SWAP1 POP JUMP JUMPDEST PUSH2 0xD10 DUP2 PUSH2 0xCFB JUMP JUMPDEST DUP3 MSTORE POP POP JUMP JUMPDEST PUSH1 0x0 PUSH1 0x20 DUP3 ADD SWAP1 POP PUSH2 0xD2B PUSH1 0x0 DUP4 ADD DUP5 PUSH2 0xD07 JUMP JUMPDEST SWAP3 SWAP2 POP POP JUMP JUMPDEST PUSH32 0x4E487B7100000000000000000000000000000000000000000000000000000000 PUSH1 0x0 MSTORE PUSH1 0x22 PUSH1 0x4 MSTORE PUSH1 0x24 PUSH1 0x0 REVERT JUMPDEST PUSH1 0x0 PUSH1 0x2 DUP3 DIV SWAP1 POP PUSH1 0x1 DUP3 AND DUP1 PUSH2 0xD78 JUMPI PUSH1 0x7F DUP3 AND SWAP2 POP JUMPDEST PUSH1 0x20 DUP3 LT DUP2 SUB PUSH2 0xD8B JUMPI PUSH2 0xD8A PUSH2 0xD31 JUMP JUMPDEST JUMPDEST POP SWAP2 SWAP1 POP JUMP JUMPDEST PUSH1 0x0 DUP2 SWAP1 POP SWAP3 SWAP2 POP POP JUMP JUMPDEST PUSH1 0x0 PUSH2 0xDA7 DUP3 PUSH2 0x7C2 JUMP JUMPDEST PUSH2 0xDB1 DUP2 DUP6 PUSH2 0xD91 JUMP JUMPDEST SWAP4 POP PUSH2 0xDC1 DUP2 DUP6 PUSH1 0x20 DUP7 ADD PUSH2 0x7DE JUMP JUMPDEST DUP1 DUP5 ADD SWAP2 POP POP SWAP3 SWAP2 POP POP JUMP JUMPDEST PUSH1 0x0 PUSH2 0xDD9 DUP3 DUP5 PUSH2 0xD9C JUMP JUMPDEST SWAP2 POP DUP2 SWAP1 POP SWAP3 SWAP2 POP POP JUMP JUMPDEST PUSH1 0x0 DUP2 SWAP1 POP DUP2 PUSH1 0x0 MSTORE PUSH1 0x20 PUSH1 0x0 KECCAK256 SWAP1 POP SWAP2 SWAP1 POP JUMP JUMPDEST PUSH1 0x0 PUSH1 0x20 PUSH1 0x1F DUP4 ADD DIV SWAP1 POP SWAP2 SWAP1 POP JUMP JUMPDEST PUSH1 0x0 DUP3 DUP3 SHL SWAP1 POP SWAP3 SWAP2 POP POP JUMP JUMPDEST PUSH1 0x0 PUSH1 0x8 DUP4 MUL PUSH2 0xE46 PUSH32 0xFFFFFFFFFFFFFFFFFFFFFFFFFFFFFFFFFFFFFFFFFFFFFFFFFFFFFFFFFFFFFFFF DUP3 PUSH2 0xE09 JUMP JUMPDEST PUSH2 0xE50 DUP7 DUP4 PUSH2 0xE09 JUMP JUMPDEST SWAP6 POP DUP1 NOT DUP5 AND SWAP4 POP DUP1 DUP7 AND DUP5 OR SWAP3 POP POP POP SWAP4 SWAP3 POP POP POP JUMP JUMPDEST PUSH1 0x0 DUP2 SWAP1 POP SWAP2 SWAP1 POP JUMP JUMPDEST PUSH1 0x0 PUSH2 0xE8D PUSH2 0xE88 PUSH2 0xE83 DUP5 PUSH2 0xA1E JUMP JUMPDEST PUSH2 0xE68 JUMP JUMPDEST PUSH2 0xA1E JUMP JUMPDEST SWAP1 POP SWAP2 SWAP1 POP JUMP JUMPDEST PUSH1 0x0 DUP2 SWAP1 POP SWAP2 SWAP1 POP JUMP JUMPDEST PUSH2 0xEA7 DUP4 PUSH2 0xE72 JUMP JUMPDEST PUSH2 0xEBB PUSH2 0xEB3 DUP3 PUSH2 0xE94 JUMP JUMPDEST DUP5 DUP5 SLOAD PUSH2 0xE16 JUMP JUMPDEST DUP3 SSTORE POP POP POP POP JUMP JUMPDEST PUSH1 0x0 SWAP1 JUMP JUMPDEST PUSH2 0xED0 PUSH2 0xEC3 JUMP JUMPDEST PUSH2 0xEDB DUP2 DUP5 DUP5 PUSH2 0xE9E JUMP JUMPDEST POP POP POP JUMP JUMPDEST JUMPDEST DUP2 DUP2 LT ISZERO PUSH2 0xEFF JUMPI PUSH2 0xEF4 PUSH1 0x0 DUP3 PUSH2 0xEC8 JUMP JUMPDEST PUSH1 0x1 DUP2 ADD SWAP1 POP PUSH2 0xEE1 JUMP JUMPDEST POP POP JUMP JUMPDEST PUSH1 0x1F DUP3 GT ISZERO PUSH2 0xF44 JUMPI PUSH2 0xF15 DUP2 PUSH2 0xDE4 JUMP JUMPDEST PUSH2 0xF1E DUP5 PUSH2 0xDF9 JUMP JUMPDEST DUP2 ADD PUSH1 0x20 DUP6 LT ISZERO PUSH2 0xF2D JUMPI DUP2 SWAP1 POP JUMPDEST PUSH2 0xF41 PUSH2 0xF39 DUP6 PUSH2 0xDF9 JUMP JUMPDEST DUP4 ADD DUP3 PUSH2 0xEE0 JUMP JUMPDEST POP POP JUMPDEST POP POP POP JUMP JUMPDEST PUSH1 0x0 DUP3 DUP3 SHR SWAP1 POP SWAP3 SWAP2 POP POP JUMP JUMPDEST PUSH1 0x0 PUSH2 0xF67 PUSH1 0x0 NOT DUP5 PUSH1 0x8 MUL PUSH2 0xF49 JUMP JUMPDEST NOT DUP1 DUP4 AND SWAP2 POP POP SWAP3 SWAP2 POP POP JUMP JUMPDEST PUSH1 0x0 PUSH2 0xF80 DUP4 DUP4 PUSH2 0xF56 JUMP JUMPDEST SWAP2 POP DUP3 PUSH1 0x2 MUL DUP3 OR SWAP1 POP SWAP3 SWAP2 POP POP JUMP JUMPDEST PUSH2 0xF99 DUP3 PUSH2 0x7C2 JUMP JUMPDEST PUSH8 0xFFFFFFFFFFFFFFFF DUP2 GT ISZERO PUSH2 0xFB2 JUMPI PUSH2 0xFB1 PUSH2 0x87E JUMP JUMPDEST JUMPDEST PUSH2 0xFBC DUP3 SLOAD PUSH2 0xD60 JUMP JUMPDEST PUSH2 0xFC7 DUP3 DUP3 DUP6 PUSH2 0xF03 JUMP JUMPDEST PUSH1 0x0 PUSH1 0x20 SWAP1 POP PUSH1 0x1F DUP4 GT PUSH1 0x1 DUP2 EQ PUSH2 0xFFA JUMPI PUSH1 0x0 DUP5 ISZERO PUSH2 0xFE8 JUMPI DUP3 DUP8 ADD MLOAD SWAP1 POP JUMPDEST PUSH2 0xFF2 DUP6 DUP3 PUSH2 0xF74 JUMP JUMPDEST DUP7 SSTORE POP PUSH2 0x105A JUMP JUMPDEST PUSH1 0x1F NOT DUP5 AND PUSH2 0x1008 DUP7 PUSH2 0xDE4 JUMP JUMPDEST PUSH1 0x0 JUMPDEST DUP3 DUP2 LT ISZERO PUSH2 0x1030 JUMPI DUP5 DUP10 ADD MLOAD DUP3 SSTORE PUSH1 0x1 DUP3 ADD SWAP2 POP PUSH1 0x20 DUP6 ADD SWAP5 POP PUSH1 0x20 DUP2 ADD SWAP1 POP PUSH2 0x100B JUMP JUMPDEST DUP7 DUP4 LT ISZERO PUSH2 0x104D JUMPI DUP5 DUP10 ADD MLOAD PUSH2 0x1049 PUSH1 0x1F DUP10 AND DUP3 PUSH2 0xF56 JUMP JUMPDEST DUP4 SSTORE POP JUMPDEST PUSH1 0x1 PUSH1 0x2 DUP9 MUL ADD DUP9 SSTORE POP POP POP JUMPDEST POP POP POP POP POP POP JUMP JUMPDEST PUSH32 0x4E487B7100000000000000000000000000000000000000000000000000000000 PUSH1 0x0 MSTORE PUSH1 0x32 PUSH1 0x4 MSTORE PUSH1 0x24 PUSH1 0x0 REVERT JUMPDEST PUSH32 0x4E487B7100000000000000000000000000000000000000000000000000000000 PUSH1 0x0 MSTORE PUSH1 0x11 PUSH1 0x4 MSTORE PUSH1 0x24 PUSH1 0x0 REVERT JUMPDEST PUSH1 0x0 PUSH2 0x10CB DUP3 PUSH2 0xA1E JUMP JUMPDEST SWAP2 POP PUSH32 0xFFFFFFFFFFFFFFFFFFFFFFFFFFFFFFFFFFFFFFFFFFFFFFFFFFFFFFFFFFFFFFFF DUP3 SUB PUSH2 0x10FD JUMPI PUSH2 0x10FC PUSH2 0x1091 JUMP JUMPDEST JUMPDEST PUSH1 0x1 DUP3 ADD SWAP1 POP SWAP2 SWAP1 POP JUMP INVALID LOG2 PUSH5 0x6970667358 0x22 SLT KECCAK256 LOG1 0xCD PUSH13 0xAD511FB29EDC8507BE1BCD80BD 0xAA JUMPDEST SWAP11 PUSH11 0x5571EA783AAF5FBDD54AB3 0x22 PUSH5 0x736F6C6343 STOP ADDMOD GT STOP CALLER "},"methodIdentifiers":{"currentLocation(uint256)":"6ada80c5","getDipper(address)":"3343c105","getRootHashs(string)":"52753f69","getRootName(string)":"3dabfdf3","setDipper(string)":"ac6622d8","setRoot(string,uint256[])":"c5f9f8a4","verifyLocation(string,uint256)":"ce951864"}}}}}