{
  "_format": "hh-sol-artifact-1",
  "contractName": "rootVerify",
  "sourceName": "contracts/root_verify.sol",
  "abi": [
    {
      "inputs": [
        {
          "internalType": "uint256",
          "name": "_currentLocation",
          "type": "uint256"
        }
      ],
      "name": "currentLocation",
      "outputs": [
        {
          "internalType": "uint256",
          "name": "",
          "type": "uint256"
        }
      ],
      "stateMutability": "nonpayable",
      "type": "function"
    },
    {
      "inputs": [
        {
          "internalType": "address",
          "name": "_addr",
          "type": "address"
        }
      ],
      "name": "getDipper",
      "outputs": [
        {
          "internalType": "string",
          "name": "",
          "type": "string"
        }
      ],
      "stateMutability": "view",
      "type": "function"
    },
    {
      "inputs": [
        {
          "internalType": "string",
          "name": "_r_name",
          "type": "string"
        }
      ],
      "name": "getRootHashs",
      "outputs": [
        {
          "internalType": "uint256[]",
          "name": "",
          "type": "uint256[]"
        }
      ],
      "stateMutability": "view",
      "type": "function"
    },
    {
      "inputs": [
        {
          "internalType": "string",
          "name": "_r_name",
          "type": "string"
        }
      ],
      "name": "getRootName",
      "outputs": [
        {
          "internalType": "string",
          "name": "",
          "type": "string"
        }
      ],
      "stateMutability": "view",
      "type": "function"
    },
    {
      "inputs": [
        {
          "internalType": "string",
          "name": "_d_name",
          "type": "string"
        }
      ],
      "name": "setDipper",
      "outputs": [],
      "stateMutability": "nonpayable",
      "type": "function"
    },
    {
      "inputs": [
        {
          "internalType": "string",
          "name": "_r_name",
          "type": "string"
        },
        {
          "internalType": "uint256[]",
          "name": "_rootLocation",
          "type": "uint256[]"
        }
      ],
      "name": "setRoot",
      "outputs": [],
      "stateMutability": "nonpayable",
      "type": "function"
    },
    {
      "inputs": [
        {
          "internalType": "string",
          "name": "_r_name",
          "type": "string"
        },
        {
          "internalType": "uint256",
          "name": "_currentLocation",
          "type": "uint256"
        }
      ],
      "name": "verifyLocation",
      "outputs": [
        {
          "internalType": "bool",
          "name": "",
          "type": "bool"
        }
      ],
      "stateMutability": "nonpayable",
      "type": "function"
    },
    {
      "stateMutability": "payable",
      "type": "receive"
    }
  ],
  "bytecode": "0x608060405234801561001057600080fd5b5061113e806100206000396000f3fe6080604052600436106100745760003560e01c80636ada80c51161004e5780636ada80c514610137578063ac6622d814610174578063c5f9f8a41461019d578063ce951864146101c65761007b565b80633343c105146100805780633dabfdf3146100bd57806352753f69146100fa5761007b565b3661007b57005b600080fd5b34801561008c57600080fd5b506100a760048036038101906100a29190610795565b610203565b6040516100b49190610852565b60405180910390f35b3480156100c957600080fd5b506100e460048036038101906100df91906109a9565b6102d6565b6040516100f19190610852565b60405180910390f35b34801561010657600080fd5b50610121600480360381019061011c91906109a9565b610389565b60405161012e9190610aba565b60405180910390f35b34801561014357600080fd5b5061015e60048036038101906101599190610b08565b610402565b60405161016b9190610b44565b60405180910390f35b34801561018057600080fd5b5061019b600480360381019061019691906109a9565b610493565b005b3480156101a957600080fd5b506101c460048036038101906101bf9190610c27565b6104e5565b005b3480156101d257600080fd5b506101ed60048036038101906101e89190610c9f565b6105c6565b6040516101fa9190610d16565b60405180910390f35b60606000808373ffffffffffffffffffffffffffffffffffffffff1673ffffffffffffffffffffffffffffffffffffffff168152602001908152602001600020600001805461025190610d60565b80601f016020809104026020016040519081016040528092919081815260200182805461027d90610d60565b80156102ca5780601f1061029f576101008083540402835291602001916102ca565b820191906000526020600020905b8154815290600101906020018083116102ad57829003601f168201915b50505050509050919050565b60606001826040516102e89190610dcd565b9081526020016040518091039020600001805461030490610d60565b80601f016020809104026020016040519081016040528092919081815260200182805461033090610d60565b801561037d5780601f106103525761010080835404028352916020019161037d565b820191906000526020600020905b81548152906001019060200180831161036057829003601f168201915b50505050509050919050565b606060018260405161039b9190610dcd565b90815260200160405180910390206001018054806020026020016040519081016040528092919081815260200182805480156103f657602002820191906000526020600020905b8154815260200190600101908083116103e2575b50505050509050919050565b6000816000803373ffffffffffffffffffffffffffffffffffffffff1673ffffffffffffffffffffffffffffffffffffffff168152602001908152602001600020600101819055506000803373ffffffffffffffffffffffffffffffffffffffff1673ffffffffffffffffffffffffffffffffffffffff168152602001908152602001600020600101549050919050565b806000803373ffffffffffffffffffffffffffffffffffffffff1673ffffffffffffffffffffffffffffffffffffffff16815260200190815260200160002060000190816104e19190610f90565b5050565b60405180604001604052808381526020018281525060018360405161050a9190610dcd565b9081526020016040518091039020600082015181600001908161052d9190610f90565b50602082015181600101908051906020019061054a9291906106b9565b509050506000803373ffffffffffffffffffffffffffffffffffffffff1673ffffffffffffffffffffffffffffffffffffffff168152602001908152602001600020600201829080600181540180825580915050600190039060005260206000200160009091909190915090816105c19190610f90565b505050565b60006105d182610402565b5060006001846040516105e49190610dcd565b908152602001604051809103902060010180548060200260200160405190810160405280929190818152602001828054801561063f57602002820191906000526020600020905b81548152602001906001019080831161062b575b505050505090506000805b825181101561069c578483828151811061066757610666611062565b5b60200260200101511461067a5781610688565b8180610685906110c0565b92505b508080610694906110c0565b91505061064a565b50600081036106ac5760006106af565b60015b9250505092915050565b8280548282559060005260206000209081019282156106f5579160200282015b828111156106f45782518255916020019190600101906106d9565b5b5090506107029190610706565b5090565b5b8082111561071f576000816000905550600101610707565b5090565b6000604051905090565b600080fd5b600080fd5b600073ffffffffffffffffffffffffffffffffffffffff82169050919050565b600061076282610737565b9050919050565b61077281610757565b811461077d57600080fd5b50565b60008135905061078f81610769565b92915050565b6000602082840312156107ab576107aa61072d565b5b60006107b984828501610780565b91505092915050565b600081519050919050565b600082825260208201905092915050565b60005b838110156107fc5780820151818401526020810190506107e1565b60008484015250505050565b6000601f19601f8301169050919050565b6000610824826107c2565b61082e81856107cd565b935061083e8185602086016107de565b61084781610808565b840191505092915050565b6000602082019050818103600083015261086c8184610819565b905092915050565b600080fd5b600080fd5b7f4e487b7100000000000000000000000000000000000000000000000000000000600052604160045260246000fd5b6108b682610808565b810181811067ffffffffffffffff821117156108d5576108d461087e565b5b80604052505050565b60006108e8610723565b90506108f482826108ad565b919050565b600067ffffffffffffffff8211156109145761091361087e565b5b61091d82610808565b9050602081019050919050565b82818337600083830152505050565b600061094c610947846108f9565b6108de565b90508281526020810184848401111561096857610967610879565b5b61097384828561092a565b509392505050565b600082601f8301126109905761098f610874565b5b81356109a0848260208601610939565b91505092915050565b6000602082840312156109bf576109be61072d565b5b600082013567ffffffffffffffff8111156109dd576109dc610732565b5b6109e98482850161097b565b91505092915050565b600081519050919050565b600082825260208201905092915050565b6000819050602082019050919050565b6000819050919050565b610a3181610a1e565b82525050565b6000610a438383610a28565b60208301905092915050565b6000602082019050919050565b6000610a67826109f2565b610a7181856109fd565b9350610a7c83610a0e565b8060005b83811015610aad578151610a948882610a37565b9750610a9f83610a4f565b925050600181019050610a80565b5085935050505092915050565b60006020820190508181036000830152610ad48184610a5c565b905092915050565b610ae581610a1e565b8114610af057600080fd5b50565b600081359050610b0281610adc565b92915050565b600060208284031215610b1e57610b1d61072d565b5b6000610b2c84828501610af3565b91505092915050565b610b3e81610a1e565b82525050565b6000602082019050610b596000830184610b35565b92915050565b600067ffffffffffffffff821115610b7a57610b7961087e565b5b602082029050602081019050919050565b600080fd5b6000610ba3610b9e84610b5f565b6108de565b90508083825260208201905060208402830185811115610bc657610bc5610b8b565b5b835b81811015610bef5780610bdb8882610af3565b845260208401935050602081019050610bc8565b5050509392505050565b600082601f830112610c0e57610c0d610874565b5b8135610c1e848260208601610b90565b91505092915050565b60008060408385031215610c3e57610c3d61072d565b5b600083013567ffffffffffffffff811115610c5c57610c5b610732565b5b610c688582860161097b565b925050602083013567ffffffffffffffff811115610c8957610c88610732565b5b610c9585828601610bf9565b9150509250929050565b60008060408385031215610cb657610cb561072d565b5b600083013567ffffffffffffffff811115610cd457610cd3610732565b5b610ce08582860161097b565b9250506020610cf185828601610af3565b9150509250929050565b60008115159050919050565b610d1081610cfb565b82525050565b6000602082019050610d2b6000830184610d07565b92915050565b7f4e487b7100000000000000000000000000000000000000000000000000000000600052602260045260246000fd5b60006002820490506001821680610d7857607f821691505b602082108103610d8b57610d8a610d31565b5b50919050565b600081905092915050565b6000610da7826107c2565b610db18185610d91565b9350610dc18185602086016107de565b80840191505092915050565b6000610dd98284610d9c565b915081905092915050565b60008190508160005260206000209050919050565b60006020601f8301049050919050565b600082821b905092915050565b600060088302610e467fffffffffffffffffffffffffffffffffffffffffffffffffffffffffffffffff82610e09565b610e508683610e09565b95508019841693508086168417925050509392505050565b6000819050919050565b6000610e8d610e88610e8384610a1e565b610e68565b610a1e565b9050919050565b6000819050919050565b610ea783610e72565b610ebb610eb382610e94565b848454610e16565b825550505050565b600090565b610ed0610ec3565b610edb818484610e9e565b505050565b5b81811015610eff57610ef4600082610ec8565b600181019050610ee1565b5050565b601f821115610f4457610f1581610de4565b610f1e84610df9565b81016020851015610f2d578190505b610f41610f3985610df9565b830182610ee0565b50505b505050565b600082821c905092915050565b6000610f6760001984600802610f49565b1980831691505092915050565b6000610f808383610f56565b9150826002028217905092915050565b610f99826107c2565b67ffffffffffffffff811115610fb257610fb161087e565b5b610fbc8254610d60565b610fc7828285610f03565b600060209050601f831160018114610ffa5760008415610fe8578287015190505b610ff28582610f74565b86555061105a565b601f19841661100886610de4565b60005b828110156110305784890151825560018201915060208501945060208101905061100b565b8683101561104d5784890151611049601f891682610f56565b8355505b6001600288020188555050505b505050505050565b7f4e487b7100000000000000000000000000000000000000000000000000000000600052603260045260246000fd5b7f4e487b7100000000000000000000000000000000000000000000000000000000600052601160045260246000fd5b60006110cb82610a1e565b91507fffffffffffffffffffffffffffffffffffffffffffffffffffffffffffffffff82036110fd576110fc611091565b5b60018201905091905056fea2646970667358221220a1cd6cad511fb29edc8507be1bcd80bdaa5b9a6a5571ea783aaf5fbdd54ab32264736f6c63430008110033",
  "linkReferences": {},
  "deployedLinkReferences": {}
}